:020000040800F2
:1000000040270020490100086B2D0008110200085C
:10001000692D00083D0B0008213600080000000093
:100020000000000000000000000000005B0100086C
:100030003F0B0008000000009B0100085D2F000836
:100040006301000863010008630100086301000800
:1000500063010008630100086301000863010008F0
:1000600063010008630100086301000863010008E0
:1000700063010008630100086301000863010008D0
:1000800063010008630100086301000863010008C0
:1000900063010008630100086301000863010008B0
:1000A00063010008630100086301000863010008A0
:1000B000393000086301000863010008630100088B
:1000C0006301000863010008630100086301000880
:1000D000630100084934000855340008B5340008AD
:1000E0006301000863010008630100086301000860
:1000F0006301000863010008630100086301000850
:10010000630100086301000863010008630100083F
:10011000630100086301000863010008630100082F
:10012000630100086301000863010008630100081F
:10013000DFF810D000F0A6FC00480047EB0A0008EA
:10014000AFF300804027002006488047064800475C
:10015000FEE7FEE7FEE7FEE7FEE7FEE7FEE7FEE777
:10016000FEE7FEE73530000831010008EFF31080AC
:1001700072B6704780F310887047324A1368012BBB
:1001800004D04FF0010313602F4A10602F4A116012
:100190002F484FF0805101607047EFF3108272B624
:1001A0002848016891B14FF00001016026480168BC
:1001B00029B1EFF3098121E9F00F006801602349BB
:1001C00009680968B1E8F00F81F3098882F31088A3
:1001D0004EF0040E70471D4908601B494FF00000A7
:1001E000086018494FF0010008601A481A49D0F811
:1001F000002041EA0201016015484FF08051016082
:1002000016480068006880F3088861B662B67047D7
:100210001EF0040F0CBFEFF30880EFF3098020E914
:10022000F00F40F804ED1EF0040F0CBF80F30888B7
:1002300080F3098800B505F031F85DF804EB4EF065
:10024000040E7047940000208C00002090000020D5
:1002500004ED00E020ED00E00000FFFF08ED00E00D
:10026000202A04DB203A21FA02F00021704721FA0B
:1002700002F3D040C2F12002914008431946704772
:1002800040EA01039B0703D009E008C9121F08C018
:10029000042AFAD203E011F8013B00F8013B521E98
:1002A000F9D27047D2B201E000F8012B491EFBD20F
:1002B00070470022F6E710B513460A460446194671
:1002C000FFF7F0FF204610BD421E12F8013F002B41
:1002D000FBD111F8013B02F8013B002BF9D170472B
:1002E00030B505462A460B4612F8010B13F8014BB0
:1002F00008B1A042F8D01CB1002802D06D1CF1E773
:10030000284630BD10B5044604E00B7800F8013BE8
:1003100003B1491C521EF8D2204610BD421C10F8F1
:10032000011B0029FBD1801A7047034611F8012BED
:1003300000F8012B002AF9D11846704730B5054660
:100340000020034600E05B1C934205D2EC5CC85CD5
:10035000201A01D1002CF6D130BDF0B480EA0102A0
:10036000D40F4200B2EB410F02D2024608461146BA
:100370004A0042D0C30DDDB2C1F3C752AD1A202DE1
:1003800035DAC1F3160141F4000204B15242C5F15D
:10039000200602FA06F12A411044B3EBD05F23D0C5
:1003A000C4B1012DA0EBC35009DCF0BC4FF00042FA
:1003B00002EAC352DBB200F5000000F092B940003F
:1003C00000F1807000EBC350A0F1807040EAD17062
:1003D000490009E0490841EAC071A0EBC35000F5AB
:1003E0000000400800EBC350F0BC00F071B961425E
:1003F000012202EB4101001BF6E7F0BC704781F0DF
:100400000041AAE780F00040A7E780EA010210B5AA
:1004100002F00043400022D04A001FD0010E01EB41
:100420001261C0F35600C2F3560240F4000042F4D9
:100430000002A0FB022000047F39140400D0401CFD
:1004400050EA124001D44000491EC2B20C0604EB2F
:10045000D010401C4008802A02D003E0002010BDCC
:1004600020F00100002900DA0020184310BD4200EE
:1004700005D0C0F3C7525242914201DC00207047C0
:1004800000EBC15070472DE9FE4F81EA030404F0F0
:10049000004421F0004100944FF0000B23F0004392
:1004A00050EA01045ED052EA03045BD0C3F30A545D
:1004B000C1F30A552C44A4F2F3340194A0FB025476
:1004C000C1F3130141F48011C3F3130343F4801308
:1004D00001FB024400FB034E840A970A44EA81545C
:1004E00047EA8357A4FB076802958D0A05FB078539
:1004F0004FEA932C04FB0C542705029D4FEA065843
:1005000047EA1637B5EB08056EEB070C870E920E1F
:1005100047EA811742EA8312A7FB0201B6EB0B01FF
:1005200064EB00042B0D43EA0C335E1844EB1C50C3
:10053000DA465146E7FB0201C5F313044FEA0B33D9
:1005400043EA14534FEA0432019C43EA0603A4F140
:100550000C040294009CCDE900B400F0FFF803B055
:10056000BDE8F08F00200146F9E770B521F00043A7
:1005700003430CD0C1F30A550024D5EB040564EB0A
:100580000403D617AD1AB34102DB0020014670BD4B
:10059000201841EB025170BD0EB540F2334102917B
:1005A0000021CDE900110A460B4600F0D7F803B050
:1005B00000BD00F0004220F00040C10DC0F3160065
:1005C00040F400007F2901DA00207047962903DCFF
:1005D000C1F19601C84001E096398840002AF4D064
:1005E0004042704700F0004230F000400AD0C10D98
:1005F00001F56071C0F3160042EA0151C2084007DC
:100600001143704700200146704701F0004330B4A9
:1006100021F0004150EA010206D00A0DA2F56072F5
:10062000C1F31301002A02DC30BC00207047440FE4
:1006300044EAC104C100E01830BC00EBC25000F035
:1006400047B830B50B46014600202022012409E0BE
:1006500021FA02F59D4205D303FA02F5491B04FA7B
:1006600002F52844151EA2F10102F1DC30BD2DE98E
:10067000F05F0546002092469B4688460646814626
:1006800040241BE02846414647462246FFF7E8FD46
:1006900053465A46C01A914110D311461846224675
:1006A00000F002FA2D1A67EB01084F46224601209E
:1006B000002100F0F9F917EB00094E41201EA4F1CA
:1006C0000104DFDC484631462A464346BDE8F09F38
:1006D0000029A8BF7047401C490008BF20F0010056
:1006E000704710B4B0FA80FC00FA0CF050EA010434
:1006F00004BF10BC704749B1CCF1200421FA04F4C6
:1007000011FA0CF118BF012121430843A3EB0C019E
:10071000CB1D4FEA00614FEA102042BF002010BC01
:10072000704700EBC35010440029A4BF10BC7047B1
:10073000401C490008BF20F0010010BC704710B5F4
:10074000141E73F1000408DA401C41F100019218F4
:100750005B411A4301D120F0010010BD2DE9F04D9D
:1007600092469B4611B1B1FA81F202E0B0FA80F2F2
:100770002032904600F098F904460F4640EA0A00FD
:1007800041EA0B0153465A46084313D0114653EA37
:10079000010019D0C8F140025046FFF761FD05463F
:1007A0000E4650465946424600F07EF9084305D0B1
:1007B000012004E020463946BDE8F08D00200543C5
:1007C00046EAE0762C4337430A986305E40AA0EB37
:1007D00008000022FD0A44EA47540A3002D50020EE
:1007E0000146E9E7010510196941DDE908450019ED
:1007F0006941BDE8F04DA2E72DE9FE4F804681EA50
:100800000300C00F0C46009021F0004123F000458A
:10081000B8EB0200A94105D24046214690461C464D
:100820000B46024623F00040104347D0270DC7F384
:100830000A00C3F30A510290401A019040286BDA73
:10084000C3F3130040F4801B0098924620B10023AC
:10085000D2EB030A63EB0B0B01985946C0F140023F
:10086000504600F021F906460D4650465946019A79
:1008700000F029F910EB08006141002487EA1152C9
:1008800084EAE7731A4340D0009A62B3019A012ABE
:100890004FEA075215DC001B61EB02014FF00042EA
:1008A00002EA0752CDE90042001C41F580113246B0
:1008B0002B46FFF753FF03B0BDE8F08F40462146BB
:1008C000F9E7001B61EB0201001C41F580130018E1
:1008D0005B412018A2F5001747EB030140EAD570F1
:1008E000B6196D4111E06D084FEA360645EAC0754C
:1008F0004FEA0752001B61EB0201001C41F5801119
:1009000049084FEA30000019514132462B4603B0E6
:10091000BDE8F04FFFF713BF00980122400000230D
:10092000D0EB020263EBE073009821464FEAE074DB
:10093000B8EB000061EB0401E9E783F000435BE7FB
:1009400081F0004158E72DE9F04D81EA030404F0FD
:10095000004B21F0004514464FF0000A23F00041FF
:1009600050EA050220D054EA01021DD0C5F30A570F
:100970000246C5F31303C1F31300C1F30A5640F452
:10098000801543F48013A7EB0608101BD64608F227
:10099000FD3873EB050002D308F1010801E092185D
:1009A0005B41B8F1000F03DA00200146BDE8F08D8D
:1009B00000204FF48011064684460EE0171B73EBAF
:1009C000050705D3121B63EB050306434CEA010C34
:1009D00049084FEA300092185B4150EA0107EDD117
:1009E00052EA030012D082EA040083EA05010843B8
:1009F00005D0101BAB4106D20122002306E00022E5
:100A00004FF0004302E06FF0010253101AEB0600B2
:100A10004CEB085110EB0A0041EB0B01BDE8F04D27
:100A2000FFF78DBEC1F30A52C1F3130140F2FF3349
:100A300041F480119A4202DA00200146704740F2E8
:100A400033439A42A2F2334202DC5242FFF708BC1F
:100A500000F02AB830B5041E71F1000404DB4FF039
:100A60000044404264EB0101141E73F1000405DBF5
:100A70001C464FF00043524263EB0403994208BF07
:100A8000904230BD064C074D06E0E06840F001039F
:100A900094E8070098471034AC42F6D3FFF74CFBBC
:100AA00090650008B0650008202A04DB203A00FAAF
:100AB00002F1002070479140C2F1200320FA03F3B5
:100AC000194390407047202A06DBCB17203A41FAA1
:100AD00002F043EAE07306E041FA02F3D040C2F1CB
:100AE0002002914008431946704710B505F0A6FA58
:100AF000002010BD30B50F4885B0816941F0080174
:100B0000816180694FF4807400F008000490012036
:100B1000CDE9004002900320074D03906946284626
:100B200000F0BCFB00222146284600F0B8FC05B0CE
:100B300030BD000000100240000C0140FEE770478D
:100B400070B5002401228021124800F0A8FC12A0F8
:100B500002F068FD4FF4FA6004F0D5FE4FF4FA7528
:100B6000214611A002F05EFD2B46002216A117A01F
:100B700000F042F828B1214615A002F053FD0120F3
:100B800070BD00F055F9641CE4B20A2CE8D30020D3
:100B900070BD000000080140415420746573742E3C
:100BA0002E2E2E2E0A0000004154205465737469C5
:100BB0006E67206672657175656E63793A2025648B
:100BC0002E2E2E2E2E2E0A004F4B000041540000D8
:100BD0004154205465737420737461727465642089
:100BE0007375636365737366756C6C793A202564FD
:100BF0002E2E2E2E2E2E0A002DE9F0411D4C0E46D3
:100C00001F46B4F8001415466FF30E01A4F8001443
:100C1000024619A11A4802F08DFC56EA050025D0BB
:100C2000384604F070FEB4F800140020C1F30E0141
:100C30006054214613A002F0F5FCB4F800046FF3F1
:100C40000E00A4F80004B4F8000420F40040A4F856
:100C500000042EB1314625B12046FFF741FB28B9EB
:100C600029460448FFF73CFB002800D00120BDE8DE
:100C7000F08100008C0E002025730D0A000000009A
:100C8000004800402573000000B585B008B101227E
:100C900000E0002206A1684602F0D4FC4FF4FA738B
:100CA000002207A16846FFF7A7FF05B000BD0000BE
:100CB00041542B4349504D55583D256400000000D8
:100CC0004F4B000010B5064C01228021204600F059
:100CD000E6FB20460022BDE81040202100F0DFBBEB
:100CE0000008014000B59FB00B46024606A16846C9
:100CF00002F0A8FC41F28833002208A16846FFF701
:100D00007BFF1FB000BD000041542B43574A4150A8
:100D10003D222573222C2225732200004F4B000018
:100D2000F0B5B9B00F4606461D461446642101A829
:100D3000FFF7BFFA16B1012E0BD103E03B4610A21C
:100D4000009402E03B460FA200940FA101A802F01C
:100D500079FC052D06D201AB2A460FA11AA802F094
:100D600071FC04E001AA11A11AA802F06BFC4FF477
:100D70007A6312A215A11AA8FFF73EFF39B0F0BDA1
:100D80005443500055445000222573222C222573D1
:100D9000222C25730000000041542B43495053542A
:100DA0004152543D25642C257300000041542B43CF
:100DB000495053544152543D25730000414C524513
:100DC000415920434F4E4E45435400004F4B0000C5
:100DD00040F6C41328B1012807D0022809D000200A
:100DE000704706A208A109A006E004A206A10AA075
:100DF00002E002A204A10BA0FFF7FEBE6E6F20630B
:100E000068616E67650000004F4B000041542B4342
:100E1000574D4F44453D310041542B43574D4F44AE
:100E2000453D320041542B43574D4F44453D33001F
:100E300010B5084C00228021204600F030FB4FF412
:100E4000FA7004F060FD20460122BDE810408021C8
:100E500000F025BB0008014030B585B01D460C46AA
:100E600038B10A4611A1124802F064FB012005B016
:100E700030BD052D06D2931C2A460EA1684602F00D
:100E8000E1FB04E010A16846921C02F0DBFB642346
:100E9000002211A16846FFF7AFFE4FF4FA7300225B
:100EA0000EA12046FFF7A8FEE1E700002573000031
:100EB0000048004041542B43495053454E443D2582
:100EC000642C25640000000041542B4349505345D5
:100ED0004E443D25640000003E20000053454E4432
:100EE000204F4B0010B521A002F09CFB27A002F080
:100EF00099FB012220212C4800F0D1FAFFF720FEB7
:100F00000028FBD029A002F08DFB0020FFF760FF36
:100F10000028FAD030A002F085FB37A139A0FFF7F6
:100F2000E1FE0028F9D03AA002F07CFB0020FFF798
:100F3000ABFE0028FAD03DA002F074FB052344A2CA
:100F400045A10120FFF7ECFE0028F7D046A002F0F3
:100F500069FB00BF00F0B4F80028FBD04BA002F002
:100F600061FBBDE8104050A002F05CBB0D0AE6AD8D
:100F7000A3E59CA8E9858DE7BDAE204553503832E6
:100F80003636202E2E2E2E2E2E0D0A000D0AE4BDF2
:100F9000BFE883BD45535038323636202E2E2E2ED4
:100FA0002E2E0D0A00000000000801400D0AE6ADDB
:100FB000A3E59CA8E9858DE7BDAEE5B7A5E4BD9C9A
:100FC000E6A8A1E5BC8F3A20535441202E2E2E2EA8
:100FD0002E2E0D0A000000000D0AE6ADA3E59CA828
:100FE000E8BF9EE68EA52057694669202E2E2E2E3C
:100FF0002E2E0D0A000000003134343131323334EA
:101000003536000050505150504C2D5A4554000078
:101010000D0AE7A681E6ADA2E5A49AE8BF9EE68E9A
:10102000A5202E2E2E2E2E2E0D0A00000D0AE6AD26
:10103000A3E59CA8E8BF9EE68EA5E69C8DE58AA167
:10104000E599A8202E2E2E2E2E2E0D0A000000002F
:1010500036303030000000003139322E3136382E33
:10106000302E3137380000000D0AE8BF9BE585A51A
:10107000E9808FE4BCA0E58F91E98081E6A8A1E535
:10108000BC8F202E2E2E2E2E2E0D0A000D0AE98545
:101090008DE7BDAE204553503832363620E5AE8C54
:1010A000E6AF950D0A0000000D0AE5BC80E5A78BB0
:1010B000E9808FE4BCA02E2E2E2E2E2E0D0A0000CD
:1010C00010B54FF4FA742346002207A107A0FFF7DA
:1010D00093FD002807D02346BDE8104007A202A1D7
:1010E00007A0FFF789BD10BD4F4B000041542B43B3
:1010F00049504D4F44453D31000000003E00000086
:1011000041542B43495053454E44000010B504460A
:101110000523002221460120FFF79EFE0028F7D07C
:1011200010BD72B6FEE710B590F82110002202291A
:1011300005D00421816380F82020012010BD0168C2
:101140000B6823F00E030B6001680B6823F00103AA
:101150000B6090F84030C46B012101FA03F3636027
:1011600080F8211080F82020104610BD2DE9F05F96
:1011700090F821100024022903D004218163012466
:1011800085E001680A6822F00E020A6001680A68B8
:1011900022F001020A603F4E3E4FB215DFF8F4C064
:1011A000DFF8F090DFF8ECA0DFF8E8B0DFF8E4E07B
:1011B0000168783F13011502ACF1640CA9F15009E4
:1011C000AAF13C0AABF1280BAEF1140E4FF48018D3
:1011D000B14227D9B9420ED0614512D049451DD040
:1011E000514518D0594518D0714501D1424615E0F6
:1011F000294EB14201D1012210E0274E1436B142EE
:1012000001D110220AE0244E2836B14206D0224AEB
:101210003C32914201D11A4600E02A461E49091F7C
:101220000A602BE0B94213D0614517D0494522D05E
:1012300051451DD059451DD0714501D142461AE096
:10124000B14202D14FF0807215E0134EB14201D18C
:10125000012210E0104E1436B14201D110220AE0F2
:101260000D4E2836B14206D00B4A3C32914201D194
:101270001A4600E02A46074980394A60012180F871
:101280002110002180F82010416B01B188472046D1
:10129000BDE8F09F80000240080402402DE9F84FAD
:1012A000DFF8C8910024A9F1040B23460F2709F1A8
:1012B000040AABF1040ED1E00125A54006EA0502BF
:1012C000AA4276D1DFF8A8C14E68A6EB0C086645A5
:1012D0002BD00DDC032E34D005DC36B3012E19D013
:1012E000022E2FD11BE0112E16D0122E2AD119E07A
:1012F000B8F5881F19D006DCB8F5803F15D0B8F5D1
:10130000801F1FD111E0B8F5001F0ED0B8F5041FE3
:1013100018D10AE0CB6815E0CB681B1D12E0CB6842
:1013200008330FE0CB680C330CE08B682BB1012B3A
:101330004FF0080303D0456104E0042302E0056197
:1013400000E00023FF2A01D8064601E000F1040670
:101350004FEA840501D9A5F12005D6F8008007FAE7
:1013600005FC28EA0C0803FA05F548EA0508C6F862
:1013700000804D68ED0070D53E4DAE6946F0010627
:10138000AE61AD6924F0030605F0010500953A4D04
:1013900006EB050CDCF80850A607360F07FA06F82E
:1013A00025EA0805DFF8D480404503D14FF0000856
:1013B00025E052E0DFF8C880404502D14FF0010837
:1013C0001DE0DFF8C080404502D14FF0020816E072
:1013D000DFF8B480404502D14FF003080FE0DFF89A
:1013E000AC80404502D14FF0040808E0DFF8A0804F
:1013F000404502D14FF0050801E04FF0060808FA19
:1014000006F848EA0508CCF808804D68D9F800606D
:10141000ED024D4601D5164300E096432E604D681F
:10142000DAF80060AD02554601D5164300E0964358
:101430002E604D68DBF80060AD035D4601D51643B4
:1014400000E096432E604D68DEF80060ED037546BF
:1014500001D5164300E096432E60641C0A681646C8
:10146000E2407FF429AFBDE8F88F00000804014096
:10147000000011100010024000000140000801406F
:10148000000C014000100140001401400018014010
:10149000001C01408068084000D0012070470AB15C
:1014A000016170470904FBE701488068704700004C
:1014B0000C000020074810B5016841F010010160E0
:1014C000032000F06DF8002000F006F800F024F88A
:1014D000002010BD0020024070B50D4D04464FF4B1
:1014E0007A712878B1FBF0F00A490968B1FBF0F095
:1014F00000F0DAFA48B9102C07D200222146501E1B
:1015000000F02EF800206C6070BD012070BD00005E
:101510000C00002018000020094808B5816941F03E
:1015200001018161816901F001010091C16941F00E
:101530008051C161C06900F08050009008BD00007A
:1015400000100240002809DB00F01F020121914039
:101550004009800000F1E020C0F800117047000051
:10156000F0B40E4B1B680C46C3F30223C3F107050E
:10157000042D00D90425191D072901D2002300E0FC
:10158000DB1E012606FA05F1491E214099409E40C6
:10159000761E16403143F0BC02F085B80CED00E039
:1015A000064900F0070208684FF6FF03184040EABA
:1015B0000220034A10430860704700000CED00E071
:1015C0000000FA052DE9F0470F46050061D0434EB3
:1015D000306800F00700B84209D2306820F00700F8
:1015E00038433060306800F00700B84251D12868B5
:1015F0003B4C810712D5400703D5606840F4E0609A
:1016000060602878000703D5606840F4605060602F
:101610006068A96820F0F000084360602878C0077F
:1016200028D06868012810D02168022810D08907C6
:1016300000292EDA616821F0030101436160FFF7A0
:1016400033FF804641F288390DE021688903EFE7D6
:101650008901EDE7FFF728FFA0EB0801494502D912
:101660000320BDE8F0876068696800F00C00B0EB0B
:10167000810FEFD1306800F00700B8420BD9306815
:1016800020F0070038433060306800F00700B842AF
:1016900001D00120E5E72878400705D56068E968B2
:1016A00020F4E060084360602878000706D5606891
:1016B000296920F4605040EAC100606000F03EF803
:1016C0006168084AC1F30311515CC84006490860CB
:1016D00006480068FFF700FF0020C2E70020024034
:1016E00000100240C861000818000020100000200F
:1016F00001480068704700001800002004480549B0
:1017000000684968044AC1F30221515CC84070472F
:101710001800002000100240D86100080448054964
:1017200000684968044AC1F3C221515CC84070474F
:101730001800002000100240D86100080E4A5168CD
:101740000E4801F00C03042B11D0082B0FD10C48CC
:10175000C1F38343C903C05C0AD55168084AC1F389
:101760004041921E515C054A5043B0FBF1F0704776
:1017700004494843704700000010024000127A00FC
:10178000B861000800093D002DE9F84F040070D051
:101790002078C04DC00749D06868C0F38100012897
:1017A00007D06868C0F38100022809D16868C003C7
:1017B00006D52868800339D560680028E7D035E071
:1017C0006068B0F5803F0BD010B1B0F5A02F11D0FC
:1017D000286820F480302860286820F4802002E007
:1017E000286840F480302860606890B1FFF75CFEA4
:1017F00006460AE0286840F480202860F0E700BF31
:10180000FFF752FE801B642873D828688003F7D541
:101810000CE0FFF749FE064605E000BFFFF744FE77
:10182000801B6428F0D828688003F7D420789A4E6B
:1018300080074FF001094FF0000839D5686810F0B3
:101840000C0F07D06868C0F38100022809D16868CE
:10185000C00306D42868800714D52069012808D160
:1018600010E02069B0B1C6F80090FFF71DFE0746F2
:1018700005E00AE1FFF718FEC01B0228C4D828685B
:101880008007F7D52868616920F0F80040EAC100B8
:1018900028600DE0C6F80080FFF706FE074604E06A
:1018A000FFF702FEC01B022823D828688007F7D460
:1018B000207800072CD57948A169D9B1C0F80090EB
:1018C000FFF7F2FD074604E0FFF7EEFDC01B02281C
:1018D0000FD8686A8007F7D571484FF4FA5100684D
:1018E000B0FBF1F0009000BF0098411E0091FAD2C9
:1018F0000EE080E0C0F80080FFF7D6FD074604E068
:10190000FFF7D2FDC01B022875D8686A8007F7D49C
:101910002078400760D5E8690027C00008D4E8694E
:1019200040F08050E861E869012700F080500090A5
:101930005C480168C90513D40168834641F480718D
:101940000160FFF7B1FD824606E000BFFFF7ACFD86
:10195000A0EB0A0064284ED8DBF80000C005F5D5DE
:10196000E06801280AD008B1052813D0286A20F0C1
:1019700001002862286A20F0040002E0286A40F092
:1019800001002862E06841F2883B98B1FFF78CFDC6
:1019900082460BE0286A40F004002862EEE700BFB0
:1019A000FFF782FDA0EB0A0159455AD8286A800743
:1019B000F6D50CE0FFF778FD824605E0FFF774FDF1
:1019C000A0EB0A0159454CD8286A8007F6D41FB10C
:1019D000E86920F08050E861E06988B36968C1F384
:1019E0008101022944D00228C6F8608004D0FFF7A4
:1019F0005BFD044638E034E0FFF756FD074604E09F
:101A0000FFF752FDC01B02282BD828688001F7D4AD
:101A1000206AB0F5803F05D16868A16820F40030E5
:101A200008436860D4E908010843696821F4741127
:101A300008436860C6F86090FFF736FD044606E08C
:101A400025E000BFFFF730FD001B022809D82868F9
:101A50008001F7D51BE000BFFFF726FD001B022821
:101A600002D90320BDE8F88F28688001F4D40EE085
:101A70000128F7D06868226A00F48031914204D1CD
:101A8000616A00F47010884201D00120EAE700206A
:101A9000E8E7000000100240000042428004424299
:101AA000180000200070004010B5401EB0F1807F8B
:101AB00001D3012010BD4FF0E02460610F216017B9
:101AC00001F0F1FD0020A06107202061002010BD81
:101AD0007047704770B590F83C20012A2CD0012443
:101AE00080F83C40022280F83D2003685A689D68D7
:101AF00022F070060A6832435A60104B02689A421C
:101B00000ED00F4B9A420BD0B2F1804F08D00D4B44
:101B10009A4205D00C4B9A4202D00C4B9A4204D107
:101B2000496825F080031943916080F83D40002109
:101B300080F83C10084670BD022070BD002C0140AA
:101B4000003401400004004000080040000C004048
:101B500010B5040003D094F83D0010B107E0012057
:101B600010BD002084F83C00204600F01FF8022041
:101B700084F83D00211D206801F064FA012084F8FA
:101B8000460084F83E0084F83F0084F8400084F862
:101B9000410084F8420084F8430084F8440084F84B
:101BA000450084F83D00002010BD000000B585B060
:101BB0000021009101910291039101681748B1F150
:101BC000804F0CD0164A914207D1C16941F0020101
:101BD000C161C06900F00200049005B000BDC16998
:101BE00041F00101C161C16901F001010491816904
:101BF00041F0040181618069694600F004000490AD
:101C0000012000900748FFF749FB002211461C20E5
:101C1000FFF7A6FC1C20FFF795FCDEE70010024052
:101C2000000400400008014070B5044690F83C00F4
:101C30000025012817D0012684F83C60022084F892
:101C40003D002068826822F0770222F47F428260A1
:101C50000868502838D00DDC20284FD005DC90B320
:101C6000102811D14AE0022070BD302846D040280B
:101C70000AD13BE060282FD070280DD0B0F5805FEE
:101C800003D0B0F5005F12D0012584F83D6000203C
:101C900084F83C00284670BDCB68D1E9012120685A
:101CA00001F023FA2068816841F0770109E0CB68F0
:101CB000D1E90121206801F018FA2068816841F417
:101CC00080418160E1E719E0CA684968206801F055
:101CD0001EFA5021206806E0CA684968206801F0B1
:101CE0005DFA6021206801F00AFACEE7CA68496807
:101CF000206801F00CFA40212068F4E722680146D0
:101D00001046F0E770B50068B0F1804F12D1124C68
:101D1000124D207801280ED002280BD10021104846
:101D200000F05BFA686000210D4800F057F9207858
:101D3000401C207070BD0021094800F04EFA286058
:101D4000074801680A6A22F00A020A620068016A0A
:101D500041F002010162EAE71C0000206C0E002045
:101D6000940D00202DE9F041054690F83C00002636
:101D70000C46012810D0012085F83C0072B1042ADD
:101D80001CD0082A2CD00C2A50D00126002085F81F
:101D90003C003046BDE8F0810220FBE7D4E90012A8
:101DA000E368286801F0C4F92868816921F00C0112
:101DB000816128688169A26811430FE0D4E90012AB
:101DC000E368286801F0FCF92868816921F4406122
:101DD000816128688169A26841EA02218161D5E7B1
:101DE0002868D4E9002C277B036A016A21F48071FA
:101DF0000162C16923F4007321F0030141EA0C017F
:101E000021F0F00C39074FF400774CEA116107EA32
:101E100002221A43C16102622868C16921F00C01E3
:101E2000C1612868C169A26811432BE02868D4E920
:101E30000021E768036AD0F820C02CF4805CC0F869
:101E400020C0D0F81CC023F400532CF4407C4CEA92
:101E5000012121F4704C4FF6FF7101EA07314FF474
:101E6000005741EA0C0107EA02321A43C1610262DB
:101E70002868C16921F44061C1612868C169A2680C
:101E800041EA0221C16181E710B5040003D094F852
:101E90003D0010B107E0012010BD002084F83C0097
:101EA000204600F01EF8022084F83D00211D206825
:101EB00001F0C8F8012084F8460084F83E0084F858
:101EC0003F0084F8400084F8410084F8420084F820
:101ED000430084F8440084F8450084F83D00002065
:101EE00010BD704730B50446002551B104290DD00E
:101EF000082910D094F8412094F84500012A11D106
:101F00000EE094F83E2094F84200F7E794F83F2062
:101F100094F84300F2E794F8402094F84400EDE789
:101F2000012801D0012030BD022059B1042912D06E
:101F3000082919D084F8410084F845000C293ED0C6
:101F400001253AE084F83E0084F842002068C26827
:101F500042F0020210E084F83F0084F84300206859
:101F6000C26842F0040207E084F8400084F84400AC
:101F70002068C26842F00802C2600122206801F0B5
:101F8000A7F81149206888420ED0104988420BD02A
:101F9000B0F1804F08D00E49884205D00D498842E3
:101FA00002D00D49884204D1816801F00701062959
:101FB00003D0016841F001010160284630BD20686E
:101FC000C26842F01002D7E7002C01400034014003
:101FD0000004004000080040000C004070B50D00F7
:101FE00004464FF0000607D0042D0AD0082D0DD06E
:101FF0000C2D10D001262FE02068C16821F00201CD
:102000000DE02068C16821F0040108E02068C16883
:1020100021F0080103E02068C16821F01001C160CF
:1020200000222946206801F053F82068016A41F235
:102030001112114207D1016A9210114203D10168B5
:1020400021F001010160012045B1042D09D0082DC6
:102050000AD004F8410F2071304670BD04F83E0FDD
:10206000F9E704F83F0FF6E704F8400FF3E770B51F
:102070000446006801694FF00005C943890715D47B
:10208000C168C943890711D4E91E01610120207785
:10209000206880698007204602D0FFF733FE04E005
:1020A00000F098F8204600F096F82577206801693E
:1020B000C943490717D4C168C943490713D46FF00E
:1020C00004010161022020772068806910F4407FBC
:1020D000204602D0FFF716FE04E000F07BF8204611
:1020E00000F079F8257720680169C943090716D4FB
:1020F000C168C943090712D46FF0080101610420C7
:1021000020772068C0698007204602D0FFF7FAFDDB
:1021100004E000F05FF8204600F05DF825772068C5
:102120000169C943C90617D4C168C943C90613D494
:102130006FF010010161082020772068C06910F459
:10214000407F204602D0FFF7DDFD04E000F042F8BA
:10215000204600F040F8257720680169C943C90787
:1021600008D1C168C943C90704D1891E016120464D
:1021700000F032F820680169C943090609D4C16832
:10218000C943090605D46FF0800101612046FFF7BD
:102190009FFC20680169C943490609D4C168C94345
:1021A000490605D46FF040010161204600F02AF88D
:1021B00020680169C94389060BD4C168C9438906EF
:1021C00007D46FF0200101612046BDE87040FFF7A1
:1021D00080BC70BD7047704770470246002041B117
:1021E000042909D008290AD00C2901D11068006CF3
:1021F00070471068406B70471068806B70471068BC
:10220000C06B70477047704770470000F8B50168B1
:1022100004460868CA684B6910F00F0F4FF00005BC
:1022200059D003F0010602F49077374365D0C10717
:1022300005D0D10503D5616C41F00101616441070E
:1022400005D5D90703D0616C41F0020161648107B3
:1022500005D5D90703D0616C41F004016164010721
:1022600007D502F02001314303D0616C41F0080131
:102270006164616C00293AD0800604D5900602D5CD
:10228000204600F0E7FF20684069616CC0F38010D1
:10229000090700D460B3204600F0B5FF206840690C
:1022A000400621D52068143050E8001F21F040017D
:1022B00040E80012002AF5D1E06BA8B16D494163F6
:1022C000E06BFEF753FF002811D0E06B416B01B0CB
:1022D000BDE8F040084783060FD593060DD520468C
:1022E000BDE8F84000F0B6BF2046FFF78DFFF8BD0F
:1022F0002046FFF789FF6564F8BD266B2023012E79
:102300007CD1C6067AD5D60678D50868486800908C
:1023100048694FF00206400640D5E16B0868406806
:102320000004000CE8D0A28D8242E5D9E0858869DE
:1023300020282DD020680C3050E8001F21F4807137
:1023400040E80012002AF5D12068143050E8001F40
:1023500021F0010140E80012002AF5D12068143074
:1023600050E8001F21F0400140E80012002AF5D19A
:1023700084F84230256320680C3050E8001F21F0BB
:10238000100140E80012002AF5D1E06BFEF7CBFE09
:102390006663A08DE18D401A81B22AE0A08DE18DA7
:1023A000401A81B2E08D0028A6D00029A4D022686E
:1023B0000C3252E8000F20F4907042E80007002F22
:1023C000F5D12068143050E8002F22F0010240E8D7
:1023D0000027002FF5D184F84230256320680C30A7
:1023E00050E8002F22F0100240E80023002BF5D126
:1023F00066632046FFF707FFF8BDFFE705062BD50C
:10240000150629D594F841002128F5D1A068B0F52A
:10241000805F01D12069B0B1206A411C216221682E
:1024200000784860E08C401E0004000CE084E3D19A
:102430002068C16821F08001C1602068C16841F056
:102440004001C160D8E7206A0088C0F308004860F6
:10245000206A801C2062E5E74006CDD55006CBD52A
:10246000CA68204622F04002CA6084F8413000F079
:10247000C3F8C1E7F731000870B5040004D094F840
:102480004100002510B106E0012070BD84F84050E5
:10249000204600F023F8242084F841002068C16819
:1024A00021F40051C160204600F036FF2068016928
:1024B00021F4904101612068416921F02A014161C4
:1024C0002068C16841F40051C1606564202084F82F
:1024D000410084F842006563002070BD30B585B0CE
:1024E00000240094019402940394006818498842DF
:1024F0002CD11848816941F480418161816901F4DE
:1025000080410491816941F0040181618069124D2B
:1025100000F0040004904FF400700090022001903D
:102520000320039069462846FEF7B8FE2815CDE93A
:102530000004694628460294FEF7B0FE00221146C8
:102540002520FFF70DF82520FEF7FCFF05B030BD74
:1025500000380140001002400008014070472DE99A
:10256000F843044690F841001F4616460D462028C1
:1025700002D00220BDE8F8837DB176B1002060640E
:10258000212084F84100FEF78FFFA6848046E68470
:10259000A068B0F5805F02D003E00120EAE720697F
:1025A00010B12E4600250EE000260CE080212046CA
:1025B00000F00EFFA0B9AEB116F8010B216848601B
:1025C000E08C401EE084E08C43464FF00002009710
:1025D0000028EBD14FF04001204600F0F9FE30B169
:1025E0000320C7E735F8020BC0F30800E6E7202018
:1025F00084F841000020BDE77047000070B5194C19
:10260000194D206848B108212846FEF743FF88B1DC
:1026100004212846FEF73EFF60B108212846FEF758
:1026200039FF01281AD004212846FEF733FF01287C
:1026300014D015E0322003F066F900202060082154
:102640002846FEF727FF28B104212846FEF722FF7F
:1026500010B105E0012070BD022070BD0120206096
:10266000002070BD2800002000180140044908B572
:10267000CA690243CA61C9690140009108BD0000EE
:1026800000100240044908B58A6902438A618969D9
:102690000140009108BD000000100240F0B50A683A
:1026A000C2F30F2595FAA5F2B2FA82F369E001228E
:1026B0009A402A4264D0082B03D240F201129A4079
:1026C00006E0A3F108024FF00114944044F0806248
:1026D0004C68082C0BD10C69C668170A97FAA7F743
:1026E000B7FA87F726EA1226BC402643C66092FA5C
:1026F000A2F700EB1264B7FA87F74FEA870C0F27AF
:10270000266807FA0CF7BE4392FAA2F7D1F804E064
:10271000B7FA87F7BF000EFA07FE46EA0E062660F4
:102720004F68012F01D0092F2AD192FAA2F7B7FAE8
:1027300087F74FEA870C032707FA0CF7BE4392FA94
:10274000A2F7B7FA87F7D1F808E0BF000EFA07FE44
:1027500092FAA2FC46EA0E06BCFA8CFC4FEA8C0EFA
:102760004FF0040C26600CFA0EFC92FAA2F2B2FAB8
:1027700082F2CF68920026EA0C0697403E4326601C
:102780005B1C35FA03F292D10020F0BD00B5034680
:1027900000F030FB186000F003FB586000F00EFB07
:1027A0009860586800F018FBD86000BD10F10C006C
:1027B00050E8001F41F0100140E80012002AF7D154
:1027C0007047000010F10C0050E8001F41F020019C
:1027D00040E80012002AF7D1704700002DE9FF41C0
:1027E0000446C0680D460126C0F34030002861D180
:1027F000E9686868E2680843296941F20C639A4312
:1028000011430843E060A868216921F44051014365
:1028100021616869616921F4407101436161684621
:10282000FFF7B4FF2548844201D103980CE0244807
:10283000844208D02348844205D02348844202D0F1
:102840002248844236D10298A0B32A6892B300EBA2
:10285000C00101EB00119200B1FBF2F36420B3FB65
:10286000F0F36FF018077B43B1FBF2F5B1FBF2F721
:1028700005EB8305322303EB0515B5FBF0F5B7FB3C
:10288000F0F705F0F00505EB0715B1FBF2F7B1FB2A
:10289000F2F1B1FBF0F100266FF01802514307EBA3
:1028A000810103EB0111B1FBF0F000F00F002844AF
:1028B00080B2A06004B03046BDE8F081003801402D
:1028C0000044004000480040004C004000500040E0
:1028D0002DE9F04786B0002430480094019402941A
:1028E0000394816941F040018161816901F04001F7
:1028F0000491816941F010018161816901F0100149
:102900000491816941F004018161816901F0040150
:102910000491816941F0080181618069DFF880805C
:1029200000F008000490002208214046FEF7B7FDA1
:10293000DFF870900022A0214846FEF7B0FDDFF8D6
:1029400068A04FF48077002239465046FEF7A7FD75
:102950000C2001258DE8310069461448FEF79EFCE5
:1029600008200226CDE90005CDE902466946404629
:10297000FEF794FCA020CDE90005CDE902466946AA
:102980004846FEF78BFC00970396CDE90154694653
:102990005046FEF783FC06B0BDE8F0870010024009
:1029A0000010014000080140000C014000180140E7
:1029B0007FB54FF480702349CDE90010142403251E
:1029C0002048CDE9025400231F4A20A1783802F0A4
:1029D000E9FF4FF480662048CDE90006CDE90254B6
:1029E00000231E4A1EA1783802F0DCFF70101F4938
:1029F000CDE900101D48CDE9025400231C4A1DA159
:102A0000783802F0CFFF1C48CDE90006CDE902542A
:102A100000231A4A1AA1783802F0C4FF094878380E
:102A200003F024F80C48783803F020F80F48783881
:102A300003F01CF804B01048BDE87040783803F08B
:102A400015B800002C010020C56000087561727483
:102A50005F6F757400000000A4020020214600088A
:102A60006765745F53523034000000001C0700207B
:102A70000D4700086B6579009409002001410008AA
:102A8000626565700000000010B504A000F0CAFD8A
:102A9000FEF718F9BDE81040FEF724BA0D0AE5BCB0
:102AA00080E5A78BE8BF90E8A18C200D0A0000000C
:102AB00010B58AB000242248049405940694079423
:102AC000089409940094019402944FF08041039477
:102AD00001604721C0E901144FF6FF71C0E90314FA
:102AE00080218161FFF734F808B1FEF71AFB4FF43B
:102AF0008050049004A91248FFF796F808B1FEF739
:102B000010FB0F48FFF7C0F908B1FEF70AFB089465
:102B100008A90B480994FEF7DDFF08B1FEF701FB99
:102B20000120CDE900400294002269460448039444
:102B3000FFF718F9002801D0FEF7F3FA0AB010BD2C
:102B4000940D002010B586B000241748009401941D
:102B50000294039404941349059401604721C0E949
:102B6000011442F21071C0E9031480218161FEF763
:102B7000EFFF08B1FEF7D5FA4FF480500090694698
:102B80000948FFF751F808B1FEF7CBFA049404A9FD
:102B900005480594FEF79EFF002801D0FEF7C1FA14
:102BA00006B010BD00040040DC0D00200C4810B53C
:102BB0000A4901604FF4E1314160002181600C223B
:102BC000C160C0E904128161C161FFF755FC0028B2
:102BD00003D0BDE81040FEF7A4BA10BD0038014094
:102BE000240E002030B58DB01C216846FDF761FB36
:102BF000142107A8FDF75DFB4FF40030FFF736FD09
:102C00000420FFF73FFD40F20440079009200890A0
:102C100003200024CDE909041F4D07A92846FFF72A
:102C20003DFD40F6080007900420089007A92846BB
:102C3000FFF734FD194800680022C0F30220114656
:102C400000F094F80146262000F01DFD262000F03B
:102C50000DFD4FF4E130CDE900040C200294CDE9E4
:102C60000340059406940E4C69462046FFF7B6FDD6
:102C7000206920F490402061606920F02A006061A2
:102C8000E06840F40050E0602046FFF79BFD2046DE
:102C9000FFF78CFD0DB030BD000801400CED00E0E9
:102CA0000044004030B58DB01C216846FDF701FBA3
:102CB000142107A8FDF7FDFA4FF48020FFF7D6FC9A
:102CC0000820FFF7DFFC2348079009200890032025
:102CD0000024CDE90904204D07A92846FFF7DEFCB2
:102CE0001E4807900420089007A92846FFF7D6FC45
:102CF0001B4800680022C0F30220114600F036F89D
:102D00000146272000F0BFFC272000F0AFFC4FF465
:102D1000E130CDE900040C200294CDE90340059494
:102D20000694104C69462046FFF758FD206920F4B0
:102D300090402061606920F02A006061E06840F402
:102D40000050E0602046FFF73DFD2046FFF72EFDD6
:102D50000DB030BD04000404000C0140080008045C
:102D60000CED00E000480040FEE7FEE730B500F063
:102D70000703C3F10704042C00D90424181D0728F5
:102D800001D2002300E0DB1E012505FA04F0401EFD
:102D9000084098409D406D1E1540284330BD0000FE
:102DA00004494968044A01F0F0010909515CC8402E
:102DB0007047000000100240C861000804494968DB
:102DC000044A01F4E06102EB11210978C840704720
:102DD00000100240D861000804494968044A01F41F
:102DE000605102EBD1210978C840704700100240C1
:102DF000D86100080648406810F00C01054805D06D
:102E0000042903D0082901D100F006B8704700005A
:102E10000010024000127A000B48416811F4803221
:102E20000A4909D0B2F5803F06D14168084AC1F38A
:102E30004041491CB2FBF1F14068022200F47010DD
:102E400002EB9040484370470010024000093D00EB
:102E500000127A002DE9F041384C207800284CD03F
:102E6000032848D1364803C8081AA060FDF794FB30
:102E7000344A354BFDF707FB4FF0FF32FDF775FB8A
:102E8000FDF7C3FB2E4D606061780C3545F82100DD
:102E9000491CC9B2617010F0FF4F02D02B4A90421A
:102EA00001DB491E6170C8B2002605281ED366707A
:102EB0000221E868FDF7DBFA80462549A868FDF79E
:102EC000A4FA074602216868FDF7D1FA2968FDF7E0
:102ED00044FA3946FDF741FA4146FDF73EFA2969C1
:102EE000FDF73BFA311FFDF7C2FA60604FF08040FA
:102EF000267046626068BDE8F081164D0122082107
:102F00002846FEF7CCFA1E2001F0AEF90022082177
:102F10002846FEF7C4FA2078401C20700E4801684D
:102F20000A6A22F00A020A620068016A0162BDE8C8
:102F3000F04100210848FEF7D5BF00001C0000202A
:102F40006C0E00209CC420B07268A13F00008C432E
:102F50000000C04000100140940D002010B502F0A8
:102F6000B7FA02F01BFEBDE8104002F0BFBA30B560
:102F70008FB028216846FDF79CF914210AA8FDF7B7
:102F800098F901210804CDE90010002402940225DB
:102F90000491CDE907504FF4E01009906846FEF720
:102FA000F3FB08B172B6FEE70F20CDE90A054FF436
:102FB0008060CDE90C4002210AA80E94FEF702FBC6
:102FC000002801D072B6FEE70FB030BD144910B52D
:102FD0004868144A10F00C03134803D0042B01D0A6
:102FE000082B09D002604968104AC1F30311515CF3
:102FF0000268CA40026010BD4A684B6802F4701251
:103000004FF0020413F4803F04EB924202D04B686D
:103010009B0301D5064B00E0024B5A43E2E7000058
:103020000010024000127A0018000020C861000859
:1030300000093D00704700000148FFF718B8000084
:10304000940D0020F0B502681C4B1D4D1D4E1E4F07
:103050001E4C4FF0804C984209D0A04207D06045EA
:1030600005D0A84203D0B04201D0B84204D122F02A
:10307000700E4A6842EA0E02984209D0A04207D078
:10308000604505D0A84203D0B04201D0B84203D178
:1030900022F44075CA682A434D6922F080022A430F
:1030A00002608A68C2620A688262984201D0A042C5
:1030B00001D10969016301214161F0BD002C01408A
:1030C0000004004000080040000C004000340140B3
:1030D00010B501F01F030121046A99408C4304627A
:1030E000016A9A401143016210BD10B5846842EA3A
:1030F000032224F47F440A432243826010BD826885
:1031000022F070020A4342F007018160704710B557
:10311000036A046A24F001040462846924F0F00460
:1031200044EA021423F00A020A438461026210BDD9
:1031300070B5056A046A24F0010404628469124EC1
:10314000B0420ED0114EB0420BD0B0F1804F08D03B
:103150000F4EB04205D00F4EB04202D00E4EB042DC
:1031600003D124F00304144301E044F001041A07DE
:1031700024F0F00444EA126225F00A0301F00A0187
:1031800019438261016270BD002C0140003401408E
:103190000004004000080040000C004010B5036A25
:1031A000046A24F010040462846923F0A00324F468
:1031B000704444EA023243EA01118261016210BDA7
:1031C00030B5046A056A25F010050562856925F4A5
:1031D000407545EA022222F470454FF6FF7202EA7A
:1031E000033224F0A0032A43A02404EA0111194366
:1031F0008261016230BD10B5406A0021C185C18481
:10320000FFF702F810BD01680C3151E8002F22F4DD
:10321000907241E80023002BF5D10168143151E888
:10322000002F22F0010241E80023002BF5D1016BB1
:10323000012909D101680C3151E8002F22F0100258
:1032400041E80023002BF5D1202180F84210002115
:103250000163704708B590F84210222901D002207E
:1032600008BD82684FF480539A4201D1016921B1AF
:10327000816A9A421BD04AB10AE00268816A5268A8
:10328000C2F308020A80816A891C08E0026972B1EF
:103290000268526802F07F020A70816A491C8162EA
:1032A000C18D491E0904090CC18503D01BE00268C9
:1032B0005268F1E70168CA6822F02002CA6001681A
:1032C000CA6822F48072CA6001684A6922F0010269
:1032D0004A61202180F8421000214163026B012ADB
:1032E00003D0FFF73BF9002008BD016301680C31F2
:1032F00051E8002F22F0100241E80023002BF5D105
:1033000001680A68D20602D50A6849680091818D71
:10331000FEF779FFE7E7000070B504460068016931
:10332000E26821F44051114301612169A06808431A
:10333000616908432168CA6841F20C639A430243F9
:10334000CA6020684169A26921F44071114341615A
:103350001E492068884202D1FEF7E0F901E0FEF73D
:10336000CDF900EBC00101EB001260686421800020
:10337000B2FBF0F3B3FBF1F36FF018067343B2FB4B
:10338000F0F5B2FBF0F605EB8305322303EB0515F0
:10339000B5FBF1F5B6FBF1F605F0F00505EB06150A
:1033A000B2FBF0F6B2FBF0F0B0FBF1F06FF01802F8
:1033B000504306EB800003EB0010B0FBF1F02168F6
:1033C00000F00F002844886070BD00000038014004
:1033D0002DE9F041984617460E460446069D27E023
:1033E000681C25D02DB1FEF75FF8A0EB0800A842BD
:1033F0001ED920680C3050E8001F21F4D07140E83D
:103400000012002AF5D12068143050E8001F21F086
:10341000010140E80012002AF5D1202084F8410083
:1034200084F84200002084F840000320BDE8F081C9
:103430002068006836EA000004D00020B842CFD0EF
:103440000020F3E70120F9E70148FEF7DFBE0000A6
:10345000240E002030B515490868C0F34012144806
:10346000B2B14A68D3B2B0F8002440F2FF34C2F3DC
:103470000E02A2420CD2B0F80024B0F80044C2F30D
:103480000E028518521C62F30E04A0F800442B7043
:103490000A68C2F30012002A06D0B0F8002442F4F1
:1034A0000042A0F80024486830BD000000440040FD
:1034B0008E12002070B519490868C0F340121848F0
:1034C000B2B14A68D3B2B0F8002440F2FF34C2F37C
:1034D0000E02A2420CD2B0F80024B0F80044C2F3AD
:1034E0000E028518521C62F30E04A0F800442B70E3
:1034F0000A68C2F30012002A0ED0B0F8002442F489
:103500000042A0F80024486806A10548FCF7E8FE40
:1035100000B101200649087070BD0000004800405D
:103520008C0E0020434C4F5345440D0A0000000010
:103530002C0000200FB42DE9FF470EAD374E4FF0A1
:1035400000092AE05C2A02D0252A0CD009E0491C97
:103550000D910A786E2A03D0722A17D1327800E0D2
:103560007278426012E0491C0D910A78642A1CD0DE
:10357000732A0BD104CD06E043600368C3F3C01384
:10358000002BFAD0521C1378002BF5D1491C0D9159
:103590000168C1F3C0110029FAD00D990A78002AF8
:1035A000D0D1BDE8FF075DF814FB02CD00276A46C5
:1035B000002921D007DA4FF02D038DF80030C1F13A
:1035C000000102F1010242F210744FF00A0C00BF38
:1035D00091FBF4F353EA070806D003F1300702F831
:1035E000017B03FB1411012794FBFCF4002CEFDC9E
:1035F00082F8009069460CE030218DF800108DF8BB
:103600000190F7E742600268C2F3C012002AFAD0C4
:10361000491C0A78002AF5D10D99B7E72D00002042
:10362000FEE700000FB4054B10B503A9044A029849
:1036300000F08CF910BC5DF814FB0000094600088E
:10364000B00000200FB4084B10B504A902AA0398DB
:1036500000F07CF9044602A9002000F03EFD20465F
:1036600010BC5DF814FB0000DB400008002809DBFB
:1036700000F01F02012191404009800000F1E0208C
:10368000C0F8001170470907090E002804DB00F19B
:10369000E02080F80014704700F00F0000F1E020F7
:1036A00080F8141D70470907090E002804DB00F19B
:1036B000E02080F80014704700F00F0000F1E020D7
:1036C00080F8141D70470000002806D00E4910F045
:1036D000FF0F03D0C0B2085C401C704710F47F4F4E
:1036E00004D0C0F30720085C0930704710F47F0F46
:1036F00004D0C0F30740085C1130704701EB106044
:103700000078193070470000E061000802E008C846
:10371000121F08C1002AFAD170477047002001E04B
:1037200001C1121F002AFBD1704700002DE9FF5F85
:1037300082B00021DDE90430020DDDF840B0034322
:1037400018D044F61050A2F2FF32424315141198DB
:1037500001281FD0A5EB0B00401C5FEA000A4FF0C8
:1037600000064E4FDFF83891B046504615D5CAF1E5
:10377000000413E0119801244AA3012801D16FEA43
:103780000B010298119AC0E90031C0E9024206B06B
:10379000BDE8F09FCBF10000DFE704460021404A7E
:1037A000491842EB0450CDE9001012E0E00707D0C1
:1037B00032463B4640464946FCF765FE8046894610
:1037C00032463B4610461946FCF75DFE06460F465C
:1037D0006410002CEAD1DDE90401DDE90023BAF12F
:1037E000000F06DAFCF74FFE42464B46FCF74BFE55
:1037F00005E0FDF7A8F842464B46FDF7A4F804465D
:103800000E460022284BFDF725F903D84FF0FF3074
:10381000014607E00022254B20463146FCF7ECFF2D
:10382000FDF700F9102409E0002C0ADB0A2200232E
:10383000FCF71DFF039B30321A55641E50EA01024B
:10384000F2D1641C039AC4F111031444119A012AA1
:1038500003D0012208430DD10AE0084304D0002020
:103860004FF0110B119072E7A3EB0B056D1E0DE0ED
:103870005B4504DD4FF0000205F1010504E003DAC9
:103880004FF00002A5F10105002AECD00298119931
:10389000C0E90231C0E9004579E7000000001440AA
:1038A0000000F03F300000000000F0430000E03F67
:1038B0002DE9F04F89B092468B460646002400E081
:1038C000641C305D202803D0092801D05C45F7D363
:1038D0004FF0FF387CB3194804F10609184F05680A
:1038E00011E0062217A12868FCF728FD50B92868C6
:1038F00022463146801DFCF721FD18B9296811F8D0
:10390000090020B10C3538688542EAD314E0AC6870
:103910008CB120216846FCF7CCFC6A4659463046FB
:1039200001F000FB38B16946A047CAF8000000204A
:1039300009B0BDE8F08FFFE74046F9E798000020A6
:103940009C0000205F5F636D645F00002DE9FF4F06
:1039500095B09A46884606460025EEE1252877D19F
:1039600000242746F94A0121039400E0044316F895
:10397000013F203B01FA03F01042F7D130782A28AA
:1039800011D06FF02F033078A0F13002092A16D839
:10399000039A44F0020402EB820203EB4202104459
:1039A000761C0390EFE758F8042B0392002A03DA01
:1039B000504244F40054039044F00204761C3078E2
:1039C0002E2816D116F8010F44F004042A280DD031
:1039D0006FF02F023078A0F13003092B09D807EBE4
:1039E000870302EB4303C718761CF3E758F8047B00
:1039F000761C30786C280FD006DC4C2817D068284D
:103A00000DD06A2814D104E0742810D07A280FD180
:103A10000DE044F400140AE044F4801401E044F49E
:103A200040147278824202D104F58014761C761C10
:103A3000307866280BD013DC582877D009DC0028B2
:103A400075D04528F6D04628F4D047281AD193E1FE
:103A500018E0632835D0642879D0652812D18BE12D
:103A6000702873D008DC6728F1D069286FD06E28E1
:103A70000DD06F2806D1ACE073282CD0752874D0F7
:103A8000782853D05246179990476D1C54E1C4F3DF
:103A90000250022809D003280DD0D8F800100428BD
:103AA0000DD00D6008F1040846E1D8F80010EA17BF
:103AB000C1E90052F6E7D8F800100D80F2E70D706A
:103AC000F0E718F8041B8DF8001000208DF80100B5
:103AD000EB46012003E058F804BB4FF0FF306107CC
:103AE0004FF0000102D40DE009F101018946B9420D
:103AF0000FDA8145F8DB1BF809100029F4D108E042
:103B000009F1010189468142FADB1BF809100029FD
:103B1000F6D103985346A0EB090721463846179A79
:103B200000F080FA284400EB090507E044E008E1D2
:103B30000DE01BF8010B524617999047B9F10109A6
:103B4000F7D2534621463846179AF2E039E00A2167
:103B5000C4F302524FF0000B0091022A06D058F82D
:103B6000040BC117032A09D00AE023E008F107007B
:103B700020F00702F2E80201904605E000B2C1170A
:103B8000042A01D140B2C117002906DA0A460021F1
:103B9000404261EB02012D2202E0220504D52B22D6
:103BA0008DF80420012203E0E20701D02022F7E78C
:103BB000914657E00A2100E010214FF0000B0091E0
:103BC0000BE010214FF0000B44F004040827009193
:103BD00003E008204FF0000B0090C4F30252022AC9
:103BE00005D058F8040B0021032A08D008E008F19A
:103BF000070020F00702F2E80201904603E080B2DD
:103C0000042A00D1C0B24FF0000922072AD5327829
:103C1000702A07D0DDF800C08CF0100C5CEA0B0CA9
:103C200005D00EE040228DF80420012208E050EA81
:103C3000010306D030238DF804308DF805200222D0
:103C40009146009B83F0080353EA0B030AD150EA24
:103C5000010201D1620705D530228DF804204FF012
:103C600001097F1E3278582A04D039A20C920CAA7E
:103C700002920BE03BA2F9E75B46009AFCF7F7FCE7
:103C80000C9B9B5C029A521E0292137050EA010236
:103C9000F2D1029804A9081A00F1200B600702D59E
:103CA00024F4803400E001275F4502DDA7EB0B0020
:103CB00000E0002000EB0B01009003984944401AFB
:103CC0000390E00306D453462146179A039800F068
:103CD000A9F90544002706E001A85246C05D1799DE
:103CE00090476D1C7F1C4F45F6DBE0030CD5534617
:103CF0002146179A039800F095F9054404E0302016
:103D00005246179990476D1C0099481E0090002953
:103D1000F5DC08E00298029952460078491C0291AD
:103D2000179990476D1CBBF10001ABF1010BF1DC61
:103D30005BE100F065F90544761C307800287FF4DB
:103D40000DAE19B02846BDE8F08F0000092801002B
:103D50003031323334353637383961626364656601
:103D600000000000303132333435363738394142C3
:103D70004344454600000000600700D4062708F1D0
:103D8000070020F00700F0E80223804603F0004C13
:103D90005FEA0C0001D097A009E0200501D596A0AC
:103DA00005E0E00701D095A001E0AFF24C001390D0
:103DB000307823F0004365280CD006DC452809D074
:103DC00046281DD047287FD13BE0662818D06728B9
:103DD0007AD136E00021112F01DB112000E0781CA0
:103DE000CDE9000104A90CA8FFF7A0FCDDE90D0155
:103DF0000C9A4FF0000B07F10109109200914EE070
:103E00004FF000400097CDE9011004A90CA8FFF77E
:103E10008DFCDDE90D020C9B0F994FF0000B9146D4
:103E20001093009211B9791C00EB0109B7EB09005E
:103E300003D4C0F1FF3B07F10109A9EB0700019092
:103E400042E0012F00DA01270021112F01DD1120AE
:103E500000E03846CDE9000104A90CA8FFF766FC94
:103E6000DDE90D010C9A00914FF0000BB94610925C
:103E700021070FD4009A4A4503DA914601E0A9F1DF
:103E80000109B9F1010F05DD109AA9F10101515C99
:103E90003029F4D0B84202DA10F1040F03DA01211C
:103EA000CDE9011010E0002803DC8344A9EB0001F8
:103EB00002E0411C494500DD8946A0EB0B00401C97
:103EC00001904FF000400290200705D4019848452A
:103ED00002DB4FF0FF30019000208DF84B0002987C
:103EE0000DF14B07B0F1004F25D002200C902B2094
:103EF0000D90029800280CDA404202902D200D907F
:103F000007E00A210298FCF79CFB3031029007F889
:103F1000011D0C99481E0C900029F2DC0298002823
:103F2000EFD1791E0D980870307800F0200040F035
:103F3000450007F8020D11A8C01BC01D0290139880
:103F4000007800B1012000EB0901019801EBE0715C
:103F5000029801440398401A401E0390E00306D4DF
:103F600053462146179A039800F05CF805441398CD
:103F7000007818B15246179990476D1CE00323D57D
:103F800053462146179A039800F04CF805441BE06D
:103F9000BBF1000F07DB0098584504DD1098179916
:103FA00010F80B0001E01799302052469047019815
:103FB0000BF1010B401E05F10105019004D12E20EB
:103FC0005246179990476D1CB9F10001A9F10109FA
:103FD000DEDC05E017F8010B5246179990476D1C7F
:103FE0000299481E02900029F4DC53462146179A94
:103FF00003989EE62D0000002B000000200000002A
:104000002DE9F041044600251E461746880404D4D5
:1040100005E039462020B0476D1C641EF9D52846BE
:10402000BDE8F0812DE9F041044600251E4690468A
:10403000C80301D5302700E02027880404D505E017
:1040400041463846B0476D1C641EF9D52846BDE888
:10405000F08100002DE9FC411F460446DDE90831EE
:10406000DDE90A65143040600060C4E90827C4E94E
:104070000A310A46232118461C3401F099FAD4E982
:1040800003014218D4E90101104B121F01F004FA98
:1040900044F81A0B002004F801690D4A04F8036B78
:1040A000E4E8020544F8105901C404F83C0B01C4CB
:1040B00044F87409009023460190194604F1440025
:1040C00001F000FE0020BDE8FC8100000D59000851
:1040D000DB5A0008143001F047BA0A68531C0B6021
:1040E0001070704770B50546FCF740F8296F04461C
:1040F00009B1284688472046BDE87040FCF73AB829
:10410000DFF860A0184F194CDFF864804FF4807519
:104110002078F8B1606851468146FCF776F9FCF7E3
:1041200048FA0646B9454FF00102294640460BDDE4
:10413000FDF7B5F9322001F0E6FB002229464046A2
:10414000FDF7ADF9304602E0FDF7A9F90A2001F0CC
:10415000DAFBDDE7002229464046FDF7A0F964209E
:10416000F5E70000000070410000A04000000020C2
:10417000000C014010B51BA001F0C6F91C4C2178C1
:104180001CA001F0C1F92078C00702D01FA001F0E7
:10419000BBF92078800702D51FA001F0B5F920787F
:1041A000400702D51FA001F0AFF92078000702D523
:1041B00020A001F0A9F92078C00602D520A001F0C6
:1041C000A3F92078000607D509480F300168BDE83B
:1041D00010401DA001F098B9BDE810401EA001F0EC
:1041E00093B90000627573206661756C743A0A00B9
:1041F00029ED00E05343425F434653525F4246532A
:10420000523A307825303258200000004942555348
:104210004552522000000000505245434953455238
:1042200052200000494D50524543495345525220B7
:1042300000000000554E53544B45525220000000E0
:1042400053544B45525220005343422D3E42464167
:10425000523A253038580A000A00000010B500F024
:1042600095FB002010BD000010B50446FDF740FA94
:104270000349B0FBF1F16143491EFDD210BD0000BE
:1042800000093D00104810B5416991F821108907D7
:1042900003D40E490020087013E0016921B1802287
:1042A0000A48FCF72FF80CE000F03AFE08B108A12C
:1042B00000E009A10548FCF738F809A10348FCF71C
:1042C00003F8024810BD000098000020C81D00201F
:1042D0006D7368200000000066696E73682000003E
:1042E0003E0000000349496911F8212F60F34102A3
:1042F0000A70704798000020014AC2E90001704727
:10430000980000207FB514491448FFF7F5FF154CBD
:1043100013480A23A0F58F65606115224FF4806170
:10432000A0F580608DE80F0000230F4A0FA17838B8
:1043300001F038FB064600231A460EA1606901F021
:1043400027FA0120FFF7CEFF16B9284601F08EFBB1
:1043500004B0002070BD00009065000800650008F2
:10436000C4220020980000207D4300087473686513
:104370006C6C00007368727800000000984D6869EA
:1043800010F8211F41F001010170FFF77BFF01F0E0
:10439000BBF8002600F04AFF0400FBD41B2C07D01A
:1043A000686990F82010012907D002290ED017E083
:1043B0006969012081F82000ECE75B2C02D080F8CD
:1043C00020600DE0022180F82010E3E780F82060F3
:1043D000412CDFD0422CDDD0442C38D0432C43D0AC
:1043E000002CD7D0FF2CD5D0092C4ED07F2C75D0E7
:1043F000082C73D00D2C70D00A2CFCD0B0F87210A1
:10440000502901D3A0F87260B0F87430B0F872107F
:104410008B427DD2CA1A00F122012330194418447C
:1044200001F0ACF86869B0F8741022300C54686977
:1044300090F82110C90706D0B0F87410223001445A
:1044400068A001F061F86869B0F87440A5E0B0F8C0
:10445000740000289ED064A001F056F8686930F816
:10446000741F491E018095E7B0F87410B0F87220EF
:1044700091428FD22230095C5CA001F045F8696955
:1044800031F8740F401C088084E7002403E056A034
:1044900001F03AF8641C6869B0F87400A042F6DCD8
:1044A0006C6953A0223401F02FF800F039FD012887
:1044B00002D1204600F070FCFFF7E4FE01462246E0
:1044C0004CA001F021F868692230FBF727FF6969E9
:1044D00021F8720F48805DE700E03DE0B0F87420FD
:1044E000002AC0D0B0F87210521E491E89B293B291
:1044F000A0F87210A0F87430994224D9CA1A00F1B9
:10450000230122301944184401F038F8686900E0AA
:1045100049E0B0F8721022300E546869B0F8741097
:104520002230014435A000F0EFFF6869B0F8744014
:1045300003E02DA000F0E8FF641C6869B0F8720089
:10454000A04290DBF5E72FA000F0DEFF6869B0F82D
:10455000721022300E541DE700F0E2FC01280DD14C
:10456000686990F82100C00702D021A000F0CCFFBC
:104570006869B0F87210223000F064FCFFF782FE28
:1045800000F0C2FF686950212230FBF792FE686993
:1045900022E015A000F0B8FF641C6869B0F8720052
:1045A000A042F6DC0AE022300C54686990F8210041
:1045B000C00703D021460DA000F0A6FF6869B0F83F
:1045C0007210491C89B2A0F87210B0F87420521C05
:1045D000A0F874205029BED320F8726F4680D9E627
:1045E00098000020257300000800000025630000EB
:1045F0000A000000257325730000000008257320C1
:104600002008000008200800044AC1B25160116867
:10461000C1F3C0110029FAD07047000000440040E7
:104620009AB00F4C4FF4FA75284601F06CF92078D7
:104630000028F9D06068FBF7D5FF02460B4609A0B9
:10464000FEF7F0FF6068FBF7CDFF02460B4607A1BF
:104650006846FEF7F7FF6846FCF758FDE4E7000000
:1046600000000020252E32660D0A0000252E32663D
:104670000000000010B5124C2068800702D511A080
:1046800000F042FF2068400011D50D48C01E0078A0
:1046900008B1FFF76FFD0A48001F007808B100F06D
:1046A0000FFB0748801E008808B101F017FD206845
:1046B000002804DABDE8104008A000F025BF10BDB6
:1046C0002CED00E06661696C656420766563746F4B
:1046D000722066657463680A000000006465627594
:1046E00067206576656E740A0000000010B502A0B0
:1046F00000F00AFF002010BD48656C6C6F2052541A
:104700002D546872656164210A00000001260E4C78
:1047100000250020FDF772FFA060012802D00228CA
:1047200006D00DE0267009A0FEF77CFF07A004E08C
:10473000257008A0FEF776FF06A0FCF7E7FCA56051
:104740001E2001F0E0F8E4E70000002073746172BD
:104750007400000073746F700000000070B50CA04E
:1047600000F0D2FE0F48104D04680BE002220FA1AA
:104770002068FBF7E3FD20B1D4E900120CA000F0A3
:10478000C3FE0C3428688442F0D3002070BD0000C2
:104790002D2D46756E6374696F6E204C6973743A83
:1047A0000A000000980000209C0000205F5F0000CD
:1047B000252D313673202D2D2025730A0000000091
:1047C0002DE9F04104461E4617460D46084600F006
:1047D00025FF001D2060257200206760C4E903608A
:1047E000BDE8F0812DE9F0410D4600212961E9681D
:1047F00091B1297A81B12E6888B10446FBF7B6FCE5
:104800000146A4F10C002A7A007A20F08000904240
:1048100009D00846FBF7AEFC0020BDE8F081344625
:10482000FBF7A4FC0146686800272468B44201D164
:10483000002404E010C0EA687F1CBA42F5D10846A3
:10484000FBF798FC20462F61E7E700002DE9F041D7
:1048500094B0002733A408230BAA022105A8FFF770
:10486000AFFF082080460146224631A000F04CFEF2
:10487000404600F0BFFB35A000F046FE05A93846D3
:10488000FFF7B0FF0746002642E00BA850F826408D
:104890000C3CFBF76BFC217A9DF81C2021F0800179
:1048A000914202D0FBF766FC31E0FBF763FC04F1B8
:1048B00014006169054681421ED000F043FEA18BC1
:1048C000CDE9001023460822414626A000F01CFE38
:1048D0002C680BE0A4F1140126A000F015FE20685E
:1048E000A84202D024A000F00FFE2468AC42F1D10F
:1048F00015A000F009FE0AE000F024FEA18BCDE92E
:1049000000102346082241461CA000F0FDFD761C45
:104910000998B042B9DC002FB0D114B00020BDE836
:10492000F081000073656D6170686F726500000052
:10493000252D2A2E73207620202073757370656EC6
:1049400064207468726561640A000000202D2D2DBA
:10495000202D2D2D2D2D2D2D2D2D2D2D2D2D2D0AB7
:1049600000000000252D2A2E2A73202530336420D4
:1049700025643A00257300002F000000252D2A2E03
:104980002A7320253033642025640A002DE9F04184
:10499000B4B000263CA408232CAA012126A8FFF7C6
:1049A0000FFF0820804601462246394800F0ACFD42
:1049B000404600F01FFB37A000F0A6FD26A93046B8
:1049C000FFF710FF0646002554E02CA850F82540BC
:1049D0000C3CFBF7CBFB0746207A9DF8A01020F09B
:1049E0008000884203D03846FBF7C4FB41E07822C0
:1049F000214607A8FBF744FC3846FBF7BBFB94F8BD
:104A00003500009023460822414632A000F07CFD8C
:104A100094F8340000F00F00012807D0022807D0D6
:104A200040B1042808D0032808D00AE02CA006E0F2
:104A30002EA004E030A002E032A000E034A000F09C
:104A400063FDA06A014600E0401C0278232AFBD0E7
:104A5000E26A401A101A64235843B0FBF2F3276B42
:104A6000206CCDE90007E069081A81182BA000F03E
:104A70004BFD6D1C2A98A842A7DC002E9ED134B0B5
:104A80000020BDE8F0810000746872656164000078
:104A900004630008202D2D2D20202D2D2D2D2D2DB2
:104AA0002D202D2D2D2D2D2D2D2D2D2D202D2D2D50
:104AB0002D2D2D2D2D2D2D20202D2D2D2D2D2D204D
:104AC000202D2D2D2D2D2D2D2D2D2D202D2D2D0A53
:104AD00000000000252D2A2E2A7320253364200093
:104AE00020726561647920200000000020737573D6
:104AF00070656E640000000020696E6974202020DB
:104B00000000000020636C6F73652020000000002F
:104B10002072756E6E696E67000000002030782587
:104B20003038782030782530387820202020253003
:104B30003264252520202030782530387820253013
:104B400033640A00F0B593B0002626A408230BAA0C
:104B50000A2104A8FFF734FE08272246394623A07D
:104B600000F0D2FC384600F045FA2AA000F0CCFC58
:104B700004A93046FFF736FE0646002524E00BA8C0
:104B800050F825400C3CFBF7F1FA217A9DF81820EB
:104B900021F08001914202D0FBF7ECFA13E0FBF721
:104BA000E9FAD4E90901CDE9000123460822394692
:104BB00021A000F0A9FC607AC00701D024A000E089
:104BC00026A000F0A1FC6D1C0898A842D7DC002E9E
:104BD000CED100F0DDFF014624A000F095FC13B01B
:104BE0000020F0BD74696D6572000000252D2A2E2D
:104BF000732020706572696F646963202020746976
:104C00006D656F757420202020202020666C616700
:104C10000A000000202D2D2D2D2D2D2D2D2D2D2088
:104C20002D2D2D2D2D2D2D2D2D2D202D2D2D2D2DC1
:104C30002D2D2D2D2D2D0A00252D2A2E2A732030C5
:104C400078253038782030782530387820000000FA
:104C50006163746976617465640A00006465616308
:104C6000746976617465640A00000000637572728D
:104C7000656E74207469636B3A3078253038780A31
:104C800000000000FCF716FCFEF771F9FDF720FEAE
:104C9000FDF78CFFFDF70CFFFDF7A4FFFEF702F810
:104CA000FDF750FFFDF784FEFDF7EEFEFBF722FF58
:104CB000FEE710B500F06EFABDE81040FFF7E2BF66
:104CC00010B518A000F020FC1B4C21781BA000F0B0
:104CD0001BFC2078C00702D01EA000F015FC207835
:104CE000800702D51EA000F00FFC2078000702D537
:104CF0001EA000F009FC2078C00602D51EA000F01E
:104D000003FC2078000607D50B480C300168BDE88D
:104D100010401CA000F0F8BBBDE810401D4800F09A
:104D2000F3BB00006D656D206D616E616765206687
:104D300061756C743A0A000028ED00E05343425F4D
:104D4000434653525F4D4653523A307825303258DD
:104D5000200000004941434356494F4C20000000C9
:104D60004441434356494F4C200000004D554E539B
:104D7000544B4552522000004D53544B4552522043
:104D8000000000005343422D3E4D4D41523A253024
:104D900038580A004C6100082DE9F047804600258C
:104DA00000782C4618B12248224F066831E0BDE851
:104DB000F0470021084600F077B806221EA13068AF
:104DC000FBF7BCFA20BB306800F106094046FBF750
:104DD000A5FA024649464046FBF7B0FAC0B925B9E4
:104DE0004C464846FBF79AFA05464946204601E0FC
:104DF000401C491C02781AB10B780BB19A42F7D0CB
:104E0000001BA84200DA054649460DA000F07CFBD5
:104E10000C3638688642D0D3002C06D02A4621466C
:104E20004046BDE8F04700F025BDBDE8F087000032
:104E3000980000209C0000205F5F636D645F0000AD
:104E400025730A0038B5044601E0491E641C59B1B7
:104E500020782028F9D00928F7D06A462046FEF7A6
:104E600027FD18B1204604E0002038BD009838BD69
:104E7000401C0178202901D00029F9D100210170BE
:104E8000214603A000F040FB4FF0FF3038BD00008A
:104E900025733A20636F6D6D616E64206E6F7420B0
:104EA000666F756E642E0A0070B50EA000F02CFBC4
:104EB0001348144D04680CE0062213A12068FBF788
:104EC0003DFA28B9D4E9001211A0891D00F01CFB9D
:104ED0000C3428688442EFD310A000F015FB0020AA
:104EE00070BD000052542D5468726561642073686F
:104EF000656C6C20636F6D6D616E64733A0A0000BF
:104F0000980000209C0000205F5F636D645F0000DC
:104F1000252D313673202D2025730A000A0000004C
:104F20000120704770B5002315461C461A464BE019
:104F300000F8012B5B1C0678202E01D0092E01D130
:104F40008B42F5D3082C11D321A000F0DDFA002606
:104F500006E000BF55F8261025A000F0D5FA761C13
:104F6000A642F7D321A000F0CFFA2FE08B422DD23A
:104F7000F6B2222E03D045F82400641C1BE0401C2E
:104F800045F824005B1C641C08E05C2E04D14678C4
:104F9000222E01D1401C5B1C401C5B1C0678222E7B
:104FA00001D08B42F1D38B4210D200F8012B5B1C55
:104FB0000AE0401C5B1C0678202E03D0092E01D08D
:104FC0008B42F6D38B4201D28B42B4D3204670BDC4
:104FD000546F6F206D616E7920617267732021209C
:104FE0005765206F6E6C79205573653A0A00000092
:104FF0002573200010B5044602E003A000F084FAF7
:10500000641EFAD210BD00002D0000002DE9F04F03
:1050100085B09946DDE90EA5109CAB46630602D526
:10502000DFF814C103E0DFF810C1ACF1110CE306A6
:1050300001D524F00104E30701D0302300E0202350
:1050400000260493A3070BD5002A02DA2D2652422C
:1050500006E0630701D52B2602E0230700D52026B2
:105060000023EE4622B930228DF8002001230CE007
:10507000B9F10A0F14D002F00F0812091CF80880C9
:105080000EF803805B1C002AF2D1AB4200DD1D4606
:10509000AAEB050214F0110F4FF0200708D015E01D
:1050A0000A27B2FBF7F807FB1828B2FBF7F2E5E78F
:1050B0003EB1002A05DD521E03E0884200D207708F
:1050C000401CB2F1000CA2F10102F6DC26B18842CC
:1050D00000D20670401C521EE40605D508E0884246
:1050E00001D2049C0470401C141EA2F10102F6DCE3
:1050F00030242E466D1E9E420ADD884200D2047086
:10510000401CF6E7884201D2E55C0570401C00E0D7
:1051100074461D1EA3F1010307DDBBF1000FF1D1A1
:1051200003E0884200D20770401C131EA2F1010266
:10513000F7DC05B0BDE8F08FF16200081FB50A4C3E
:1051400014230A224FF48061A4F580608DE80F00DB
:105150000023064A06A1204600F024FC04B02046A5
:10516000BDE8104000F082BC901A0020B34C00084B
:105170006D61696E0000000070B5044C044D02E0E2
:1051800020688047241DAC42FAD370BDEC6400084F
:10519000F464000870B5044C044D02E020688047B8
:1051A000241DAC42FAD370BDF4640008FC6400080E
:1051B00010B5FAF7DBFF044A5188491C5180BDE85D
:1051C0001040FAF7D7BF00006800002010B5FAF7CA
:1051D000CDFF0B4C6188491E09B2618000290ADCB1
:1051E00000216180FAF7C6FF6068002807D0BDE89B
:1051F000104000F055BABDE81040FAF7BBBF10BD33
:105200006800002010B5FCF755F9FDF7B0FEFDF77A
:10521000DDFEFCF76DFA4FF47A71B0FBF1F0FCF7AC
:1052200043FCBDE81040FFF7A7BF0000084810B5D9
:1052300000684FF0FF340168C943890602D4406812
:10524000C4B202E00A2000F0C5FBE0B210BD0000CD
:10525000801D0020F8B506460D200F498DF800008E
:10526000002481F84040304600F0FCFA05460FE08B
:10527000305D0A2805D101231A4669460648FDF724
:105280006EF9012331191A460348FDF768F9641CC9
:10529000AC42EDD3F8BD0000801D002070B505467E
:1052A000041D2D48016819B128468847002851D0AF
:1052B0002AA0E16B00F028F92CA0216A00F024F963
:1052C0002EA0616A00F020F930A0A16A00F01CF95C
:1052D00032A0E16A00F018F934A0216800F014F956
:1052E00036A0616800F010F938A0A16800F00CF950
:1052F0003AA0E16800F008F93CA0216900F004F947
:105300003EA0616900F000F940A0A16900F0FCF83E
:1053100042A0E16900F0F8F844A0216B00F0F4F835
:1053200046A0616B00F0F0F848A0A16B00F0ECF82B
:105330002878400708D500F073FB014647A000F02D
:10534000E3F8FFF723FB02E04CA000F0DDF8FFF7E5
:1053500091F9FEE770BD0000880000207073723A7A
:10536000203078253038780A000000007230303A5A
:10537000203078253038780A000000007230313A49
:10538000203078253038780A000000007230323A38
:10539000203078253038780A000000007230333A27
:1053A000203078253038780A000000007230343A16
:1053B000203078253038780A000000007230353A05
:1053C000203078253038780A000000007230363AF4
:1053D000203078253038780A000000007230373AE3
:1053E000203078253038780A000000007230383AD2
:1053F000203078253038780A000000007230393AC1
:10540000203078253038780A000000007231303AB8
:10541000203078253038780A000000007231313AA7
:10542000203078253038780A000000007231323A96
:10543000203078253038780A00000000206C723A5D
:10544000203078253038780A000000002070633A58
:10545000203078253038780A0000000068617264D6
:10546000206661756C74206F6E207468726561646B
:105470003A2025730D0A0D0A00000000686172646D
:10548000206661756C74206F6E2068616E646C6557
:10549000720D0A0D0A00000070B50446121D22F0BC
:1054A00007000022094D403840F82250521C102AB3
:1054B000FAD301620021416281624FF0807200F1F3
:1054C0003005C263C16285E81A0070BDEFBEADDE73
:1054D00010B5FAF74BFE044A1178491C1170BDE86B
:1054E0001040FAF747BE00003400002010B5FAF76C
:1054F0003DFE044A1178491E1170BDE81040FAF7CC
:1055000039BE0000340000200FB47F2110B503AB7A
:105510000448029A00F048FC0248FFF79BFE10BCCA
:105520005DF814FB001C00200268516002680A60EC
:105530000160486070470268516002680A6001605B
:10554000486070470246002100E0491C0068904214
:10555000FBD108467047D0E900124A60D0E900123A
:105560001160406000607047D0E900124A60D0E9E5
:1055700000121160406000607047000010B50346E3
:10558000994211D28C189C420ED9811804E000BFB8
:1055900014F8013D01F8013D521EF9D210BD00BFC3
:1055A00011F8014B03F8014B521EF9D210BD000057
:1055B00010B50346CCB2042A1AD3810718D1194674
:1055C00044EA042343EA034306E008C1103A08C151
:1055D00041F8083B41F8043C102AF6D201E008C12A
:1055E000121F042AFBD20B4602E000BF03F8014B56
:1055F000521EFBD210BD10B5044600202072FAF7EF
:10560000B5FDF4E903124A60D4E900121160646048
:105610002460BDE81040FAF7ADBD0000074A002144
:1056200002EB01131B78834202D102EB0110704799
:10563000491C0329F4DB00207047000038000020DB
:105640002DE9F041054617460E460846FFF7E6FFEE
:105650000446FFF7ADFD211D606800E00068884248
:10566000FCD1FFF7B3FD46F08000287208223946CE
:10567000284600F0FFF8FAF779FD54F8041F0C35BE
:105680004D602168296025606C60BDE8F041FAF743
:1056900071BD007A000601D50120704700207047D7
:1056A00070B5FAF763FD114C05466088B0B9A06883
:1056B000FEF70AF80E49401E626851F8301014399E
:1056C00091420BD020700B486160007801F11C0101
:1056D000002802F11C0006D0FAF74FFD2846BDE86D
:1056E0007040FAF747BDFAF748FDF7E76800002079
:1056F000801C00203400002010B50446FAF736FD67
:10570000024694F834000E4920F00F00401C84F843
:10571000340094F8350001EBC00104F114004B682B
:1057200018604B68A361486006486161A16B83689B
:1057300019438160BDE810401046FAF71BBD000018
:10574000801C00206800002010B50446FAF70EFD0A
:1057500004F11401D1E900235360D1E900231A6058
:10576000A161616194F83520074951F8323001EBAD
:10577000C2018B4204D10549A36B8A689A438A60AF
:10578000BDE81040FAF7F6BC801C0020680000203D
:105790002DE9F04116460A461F4605460221FFF74D
:1057A0004FFF05F11404AC616C61AE836F72002091
:1057B000BDE8F08108B509A0FFF7A6FE0AA0FFF733
:1057C000A3FE12A0009005230122032112A0FFF7DF
:1057D0009BFEBDE8084018A0FFF796BE0A205C209B
:1057E0007C202F0A000000002D205254202D202064
:1057F000202020546872656164204F706572617466
:10580000696E672053797374656D0A004A756E205E
:105810003232203230323300202F207C205C202096
:1058200020202025642E25642E2564206275696C55
:10583000642025730A0000002032303036202D20ED
:105840003230323020436F70797269676874206239
:10585000792072742D746872656164207465616D5D
:105860000A000000014600E0491C0A78002AFBD12A
:10587000081A704710B5002A07D0034611F8014BEB
:1058800003F8014B2CB1521EF8D110BD03F8011BD7
:1058900000E00021521EF9D110BD000010B50A49E8
:1058A00000230A4C4B80184604EBC002401C526097
:1058B00012602028F8DB1F20087003484B600C3072
:1058C0008B604060006010BD68000020801C0020DC
:1058D00010B5074CA068FDF7F7FE0649401E51F8C9
:1058E000300014386060BDE810401C30FAF773BC1B
:1058F00068000020801C0020014840600060704764
:1059000080000020704700F091B8000070B5144886
:105910000468FAF72BFC05462046FEF7E3FB204619
:10592000FFF712FF042084F8340004F1440000F073
:10593000B5F92046FFF7ADFE01280CD004F11401A3
:105940000848FFF7F1FD00BFFFF7AAFE2846BDE8B3
:105950007040FAF70FBC2046FFF74DFEF4E7000059
:105960006C00002074000020FEE700001FB509480D
:1059700020231F2280218DE80F000023064A07A163
:10598000783800F00FF804B00248BDE810407838CD
:1059900000F06CB8801B0020695900087469646CC1
:1059A000650000002DE9FF5F92460EAA0C4692E8C2
:1059B000E0010A46994683460121FFF741FE8DE842
:1059C000E0014B46524621465846FEF743FB04B0E1
:1059D000BDE8F09F10B500F0C1F8BDE8104000F040
:1059E00025B870B5044690F8340000F00F00022886
:1059F00002D04FF0FF3070BDFAF7B8FB054604F156
:105A00001400FFF7A8FD04F1440000F0B5F92846A2
:105A1000FAF7B0FB2046FFF76FFE002070BD0000D4
:105A200001480068704700006C000020F1B5FAF7EB
:105A30009DFB05460C480468204600F02DF804F153
:105A400044006A460021064600F004F9304600F0A2
:105A500051F92846FAF78EFBFFF722FE206B801CD7
:105A600000D120630020F8BD6C00002010B590F834
:105A70003610012280F835108A400221826380F8B6
:105A80003410FFF7AEFF0348006808B1FFF708FEC7
:105A9000002010BD6C00002070B5044690F8340062
:105AA00000F00F00012802D04FF0FF3070BDFAF770
:105AB0005DFB05462046FFF747FE94F8340020F0D2
:105AC0000F00801C84F8340004F1440000F054F905
:105AD0002846FAF74FFB002070BD10B504466FF062
